{
  "contractName": "SolnSquareVerifier",
  "abi": [
    {
      "inputs": [
        {
          "internalType": "address",
          "name": "verifierAddress",
          "type": "address"
        }
      ],
      "payable": false,
      "stateMutability": "nonpayable",
      "type": "constructor"
    },
    {
      "anonymous": false,
      "inputs": [
        {
          "indexed": true,
          "internalType": "address",
          "name": "owner",
          "type": "address"
        },
        {
          "indexed": true,
          "internalType": "address",
          "name": "approved",
          "type": "address"
        },
        {
          "indexed": true,
          "internalType": "uint256",
          "name": "tokenId",
          "type": "uint256"
        }
      ],
      "name": "Approval",
      "type": "event"
    },
    {
      "anonymous": false,
      "inputs": [
        {
          "indexed": true,
          "internalType": "address",
          "name": "owner",
          "type": "address"
        },
        {
          "indexed": true,
          "internalType": "address",
          "name": "operator",
          "type": "address"
        },
        {
          "indexed": false,
          "internalType": "bool",
          "name": "approved",
          "type": "bool"
        }
      ],
      "name": "ApprovalForAll",
      "type": "event"
    },
    {
      "anonymous": false,
      "inputs": [
        {
          "indexed": false,
          "internalType": "address",
          "name": "newOwner",
          "type": "address"
        }
      ],
      "name": "OwnerTransferred",
      "type": "event"
    },
    {
      "anonymous": false,
      "inputs": [
        {
          "indexed": false,
          "internalType": "address",
          "name": "from",
          "type": "address"
        }
      ],
      "name": "Paused",
      "type": "event"
    },
    {
      "anonymous": false,
      "inputs": [
        {
          "indexed": false,
          "internalType": "uint256",
          "name": "tokenId",
          "type": "uint256"
        },
        {
          "indexed": false,
          "internalType": "address",
          "name": "tokenOwner",
          "type": "address"
        }
      ],
      "name": "SolutionAdded",
      "type": "event"
    },
    {
      "anonymous": false,
      "inputs": [
        {
          "indexed": true,
          "internalType": "address",
          "name": "from",
          "type": "address"
        },
        {
          "indexed": true,
          "internalType": "address",
          "name": "to",
          "type": "address"
        },
        {
          "indexed": true,
          "internalType": "uint256",
          "name": "tokenId",
          "type": "uint256"
        }
      ],
      "name": "Transfer",
      "type": "event"
    },
    {
      "anonymous": false,
      "inputs": [
        {
          "indexed": false,
          "internalType": "address",
          "name": "from",
          "type": "address"
        }
      ],
      "name": "Unpaused",
      "type": "event"
    },
    {
      "constant": false,
      "inputs": [
        {
          "internalType": "bytes32",
          "name": "_myid",
          "type": "bytes32"
        },
        {
          "internalType": "string",
          "name": "_result",
          "type": "string"
        }
      ],
      "name": "__callback",
      "outputs": [],
      "payable": false,
      "stateMutability": "nonpayable",
      "type": "function"
    },
    {
      "constant": false,
      "inputs": [
        {
          "internalType": "bytes32",
          "name": "_myid",
          "type": "bytes32"
        },
        {
          "internalType": "string",
          "name": "_result",
          "type": "string"
        },
        {
          "internalType": "bytes",
          "name": "_proof",
          "type": "bytes"
        }
      ],
      "name": "__callback",
      "outputs": [],
      "payable": false,
      "stateMutability": "nonpayable",
      "type": "function"
    },
    {
      "constant": false,
      "inputs": [
        {
          "internalType": "address",
          "name": "to",
          "type": "address"
        },
        {
          "internalType": "uint256",
          "name": "tokenId",
          "type": "uint256"
        }
      ],
      "name": "approve",
      "outputs": [],
      "payable": false,
      "stateMutability": "nonpayable",
      "type": "function"
    },
    {
      "constant": true,
      "inputs": [
        {
          "internalType": "address",
          "name": "owner",
          "type": "address"
        }
      ],
      "name": "balanceOf",
      "outputs": [
        {
          "internalType": "uint256",
          "name": "",
          "type": "uint256"
        }
      ],
      "payable": false,
      "stateMutability": "view",
      "type": "function"
    },
    {
      "constant": true,
      "inputs": [
        {
          "internalType": "uint256",
          "name": "tokenId",
          "type": "uint256"
        }
      ],
      "name": "getApproved",
      "outputs": [
        {
          "internalType": "address",
          "name": "",
          "type": "address"
        }
      ],
      "payable": false,
      "stateMutability": "view",
      "type": "function"
    },
    {
      "constant": true,
      "inputs": [],
      "name": "getBaseTokenURI",
      "outputs": [
        {
          "internalType": "string",
          "name": "",
          "type": "string"
        }
      ],
      "payable": false,
      "stateMutability": "view",
      "type": "function"
    },
    {
      "constant": true,
      "inputs": [],
      "name": "getName",
      "outputs": [
        {
          "internalType": "string",
          "name": "",
          "type": "string"
        }
      ],
      "payable": false,
      "stateMutability": "view",
      "type": "function"
    },
    {
      "constant": true,
      "inputs": [],
      "name": "getOwner",
      "outputs": [
        {
          "internalType": "address",
          "name": "",
          "type": "address"
        }
      ],
      "payable": false,
      "stateMutability": "view",
      "type": "function"
    },
    {
      "constant": true,
      "inputs": [],
      "name": "getPaused",
      "outputs": [
        {
          "internalType": "bool",
          "name": "",
          "type": "bool"
        }
      ],
      "payable": false,
      "stateMutability": "view",
      "type": "function"
    },
    {
      "constant": true,
      "inputs": [],
      "name": "getSymbol",
      "outputs": [
        {
          "internalType": "string",
          "name": "",
          "type": "string"
        }
      ],
      "payable": false,
      "stateMutability": "view",
      "type": "function"
    },
    {
      "constant": true,
      "inputs": [
        {
          "internalType": "uint256",
          "name": "tokenId",
          "type": "uint256"
        }
      ],
      "name": "getTokenURI",
      "outputs": [
        {
          "internalType": "string",
          "name": "",
          "type": "string"
        }
      ],
      "payable": false,
      "stateMutability": "view",
      "type": "function"
    },
    {
      "constant": true,
      "inputs": [
        {
          "internalType": "address",
          "name": "owner",
          "type": "address"
        },
        {
          "internalType": "address",
          "name": "operator",
          "type": "address"
        }
      ],
      "name": "isApprovedForAll",
      "outputs": [
        {
          "internalType": "bool",
          "name": "",
          "type": "bool"
        }
      ],
      "payable": false,
      "stateMutability": "view",
      "type": "function"
    },
    {
      "constant": false,
      "inputs": [
        {
          "internalType": "address",
          "name": "to",
          "type": "address"
        },
        {
          "internalType": "uint256",
          "name": "tokenId",
          "type": "uint256"
        }
      ],
      "name": "mint",
      "outputs": [
        {
          "internalType": "bool",
          "name": "",
          "type": "bool"
        }
      ],
      "payable": false,
      "stateMutability": "nonpayable",
      "type": "function"
    },
    {
      "constant": true,
      "inputs": [
        {
          "internalType": "uint256",
          "name": "tokenId",
          "type": "uint256"
        }
      ],
      "name": "ownerOf",
      "outputs": [
        {
          "internalType": "address",
          "name": "",
          "type": "address"
        }
      ],
      "payable": false,
      "stateMutability": "view",
      "type": "function"
    },
    {
      "constant": false,
      "inputs": [
        {
          "internalType": "address",
          "name": "from",
          "type": "address"
        },
        {
          "internalType": "address",
          "name": "to",
          "type": "address"
        },
        {
          "internalType": "uint256",
          "name": "tokenId",
          "type": "uint256"
        }
      ],
      "name": "safeTransferFrom",
      "outputs": [],
      "payable": false,
      "stateMutability": "nonpayable",
      "type": "function"
    },
    {
      "constant": false,
      "inputs": [
        {
          "internalType": "address",
          "name": "from",
          "type": "address"
        },
        {
          "internalType": "address",
          "name": "to",
          "type": "address"
        },
        {
          "internalType": "uint256",
          "name": "tokenId",
          "type": "uint256"
        },
        {
          "internalType": "bytes",
          "name": "_data",
          "type": "bytes"
        }
      ],
      "name": "safeTransferFrom",
      "outputs": [],
      "payable": false,
      "stateMutability": "nonpayable",
      "type": "function"
    },
    {
      "constant": false,
      "inputs": [
        {
          "internalType": "address",
          "name": "to",
          "type": "address"
        },
        {
          "internalType": "bool",
          "name": "approved",
          "type": "bool"
        }
      ],
      "name": "setApprovalForAll",
      "outputs": [],
      "payable": false,
      "stateMutability": "nonpayable",
      "type": "function"
    },
    {
      "constant": false,
      "inputs": [
        {
          "internalType": "bool",
          "name": "paused_",
          "type": "bool"
        }
      ],
      "name": "setPaused",
      "outputs": [],
      "payable": false,
      "stateMutability": "nonpayable",
      "type": "function"
    },
    {
      "constant": true,
      "inputs": [
        {
          "internalType": "bytes4",
          "name": "interfaceId",
          "type": "bytes4"
        }
      ],
      "name": "supportsInterface",
      "outputs": [
        {
          "internalType": "bool",
          "name": "",
          "type": "bool"
        }
      ],
      "payable": false,
      "stateMutability": "view",
      "type": "function"
    },
    {
      "constant": true,
      "inputs": [
        {
          "internalType": "uint256",
          "name": "index",
          "type": "uint256"
        }
      ],
      "name": "tokenByIndex",
      "outputs": [
        {
          "internalType": "uint256",
          "name": "",
          "type": "uint256"
        }
      ],
      "payable": false,
      "stateMutability": "view",
      "type": "function"
    },
    {
      "constant": true,
      "inputs": [
        {
          "internalType": "address",
          "name": "owner",
          "type": "address"
        },
        {
          "internalType": "uint256",
          "name": "index",
          "type": "uint256"
        }
      ],
      "name": "tokenOfOwnerByIndex",
      "outputs": [
        {
          "internalType": "uint256",
          "name": "",
          "type": "uint256"
        }
      ],
      "payable": false,
      "stateMutability": "view",
      "type": "function"
    },
    {
      "constant": true,
      "inputs": [],
      "name": "totalSupply",
      "outputs": [
        {
          "internalType": "uint256",
          "name": "",
          "type": "uint256"
        }
      ],
      "payable": false,
      "stateMutability": "view",
      "type": "function"
    },
    {
      "constant": false,
      "inputs": [
        {
          "internalType": "address",
          "name": "from",
          "type": "address"
        },
        {
          "internalType": "address",
          "name": "to",
          "type": "address"
        },
        {
          "internalType": "uint256",
          "name": "tokenId",
          "type": "uint256"
        }
      ],
      "name": "transferFrom",
      "outputs": [],
      "payable": false,
      "stateMutability": "nonpayable",
      "type": "function"
    },
    {
      "constant": false,
      "inputs": [
        {
          "internalType": "address",
          "name": "newOwner",
          "type": "address"
        }
      ],
      "name": "transferOwnership",
      "outputs": [],
      "payable": false,
      "stateMutability": "nonpayable",
      "type": "function"
    },
    {
      "constant": false,
      "inputs": [
        {
          "internalType": "uint256[2]",
          "name": "a",
          "type": "uint256[2]"
        },
        {
          "internalType": "uint256[2][2]",
          "name": "b",
          "type": "uint256[2][2]"
        },
        {
          "internalType": "uint256[2]",
          "name": "c",
          "type": "uint256[2]"
        },
        {
          "internalType": "uint256[2]",
          "name": "input",
          "type": "uint256[2]"
        }
      ],
      "name": "addSolution",
      "outputs": [],
      "payable": false,
      "stateMutability": "nonpayable",
      "type": "function"
    },
    {
      "constant": false,
      "inputs": [
        {
          "internalType": "uint256[2]",
          "name": "a",
          "type": "uint256[2]"
        },
        {
          "internalType": "uint256[2][2]",
          "name": "b",
          "type": "uint256[2][2]"
        },
        {
          "internalType": "uint256[2]",
          "name": "c",
          "type": "uint256[2]"
        },
        {
          "internalType": "uint256[2]",
          "name": "input",
          "type": "uint256[2]"
        }
      ],
      "name": "mintNewTokens",
      "outputs": [],
      "payable": false,
      "stateMutability": "nonpayable",
      "type": "function"
    }
  ],
  "bytecode": "0x60806040523480156200001157600080fd5b5060405162003e5938038062003e59833981810160405260208110156200003757600080fd5b81019080805190602001909291905050506040518060400160405280601781526020017f5265616c20457374617465204d61726b6574706c6163650000000000000000008152506040518060400160405280600381526020017f52454d00000000000000000000000000000000000000000000000000000000008152506040518060600160405280603f815260200162003e1a603f9139336000806101000a81548173ffffffffffffffffffffffffffffffffffffffff021916908373ffffffffffffffffffffffffffffffffffffffff1602179055507f59f8e335c08d1479ecf855b99b0c772a9cba03a8abdff4d9b52a76f655072df66000809054906101000a900473ffffffffffffffffffffffffffffffffffffffff16604051808273ffffffffffffffffffffffffffffffffffffffff1673ffffffffffffffffffffffffffffffffffffffff16815260200191505060405180910390a160008060146101000a81548160ff021916908315150217905550620001c46301ffc9a760e01b620002a260201b60201c565b620001dc6380ac58cd60e01b620002a260201b60201c565b620001f463780e9d6360e01b620002a260201b60201c565b82600f90805190602001906200020c92919062000342565b5081601090805190602001906200022592919062000342565b5080601190805190602001906200023e92919062000342565b5062000257635b5e139f60e01b620002a260201b60201c565b50505080601360006101000a81548173ffffffffffffffffffffffffffffffffffffffff021916908373ffffffffffffffffffffffffffffffffffffffff16021790555050620003f1565b63ffffffff60e01b817bffffffffffffffffffffffffffffffffffffffffffffffffffffffff19161415620002d657600080fd5b6001806000837bffffffffffffffffffffffffffffffffffffffffffffffffffffffff19167bffffffffffffffffffffffffffffffffffffffffffffffffffffffff1916815260200190815260200160002060006101000a81548160ff02191690831515021790555050565b828054600181600116156101000203166002900490600052602060002090601f016020900481019282601f106200038557805160ff1916838001178555620003b6565b82800160010185558215620003b6579182015b82811115620003b557825182559160200191906001019062000398565b5b509050620003c59190620003c9565b5090565b620003ee91905b80821115620003ea576000816000905550600101620003d0565b5090565b90565b613a1980620004016000396000f3fe608060405234801561001057600080fd5b506004361061018e5760003560e01c806340c10f19116100de578063893d20e811610097578063bdc32be011610071578063bdc32be014610c9e578063e985e9c514610d21578063f2fde38b14610d9d578063f76b443114610de15761018e565b8063893d20e814610aff578063a22cb46514610b49578063b88d4fde14610b995761018e565b806340c10f191461090157806342842e0e146109675780634f6ccce7146109d55780636352211e14610a175780636805b84b14610a8557806370a0823114610aa75761018e565b806318160ddd1161014b57806327dc297e1161012557806327dc297e146105d75780632f745c591461069c57806338bbfa50146106fe5780633bb3a24d1461085a5761018e565b806318160ddd146103ea5780631945eea11461040857806323b872dd146105695761018e565b806301ffc9a714610193578063081812fc146101f8578063095ea7b31461026657806315070401146102b457806316c38b3c1461033757806317d7de7c14610367575b600080fd5b6101de600480360360208110156101a957600080fd5b8101908080357bffffffffffffffffffffffffffffffffffffffffffffffffffffffff19169060200190929190505050610f42565b604051808215151515815260200191505060405180910390f35b6102246004803603602081101561020e57600080fd5b8101908080359060200190929190505050610faa565b604051808273ffffffffffffffffffffffffffffffffffffffff1673ffffffffffffffffffffffffffffffffffffffff16815260200191505060405180910390f35b6102b26004803603604081101561027c57600080fd5b81019080803573ffffffffffffffffffffffffffffffffffffffff16906020019092919080359060200190929190505050611062565b005b6102bc611258565b6040518080602001828103825283818151815260200191508051906020019080838360005b838110156102fc5780820151818401526020810190506102e1565b50505050905090810190601f1680156103295780820380516001836020036101000a031916815260200191505b509250505060405180910390f35b6103656004803603602081101561034d57600080fd5b810190808035151590602001909291905050506112fa565b005b61036f6114ab565b6040518080602001828103825283818151815260200191508051906020019080838360005b838110156103af578082015181840152602081019050610394565b50505050905090810190601f1680156103dc5780820380516001836020036101000a031916815260200191505b509250505060405180910390f35b6103f261154d565b6040518082815260200191505060405180910390f35b610567600480360361014081101561041f57600080fd5b8101908080604001906002806020026040519081016040528092919082600260200280828437600081840152601f19601f82011690508083019250505050505091929192908060800190600280602002604051908101604052809291906000905b828210156104d4578382604002016002806020026040519081016040528092919082600260200280828437600081840152601f19601f82011690508083019250505050505081526020019060010190610480565b50505050919291929080604001906002806020026040519081016040528092919082600260200280828437600081840152601f19601f820116905080830192505050505050919291929080604001906002806020026040519081016040528092919082600260200280828437600081840152601f19601f820116905080830192505050505050919291929050505061155a565b005b6105d56004803603606081101561057f57600080fd5b81019080803573ffffffffffffffffffffffffffffffffffffffff169060200190929190803573ffffffffffffffffffffffffffffffffffffffff169060200190929190803590602001909291905050506117fb565b005b61069a600480360360408110156105ed57600080fd5b81019080803590602001909291908035906020019064010000000081111561061457600080fd5b82018360208201111561062657600080fd5b8035906020019184600183028401116401000000008311171561064857600080fd5b91908080601f016020809104026020016040519081016040528093929190818152602001838380828437600081840152601f19601f82011690508083019250505050505050919291929050505061181e565b005b6106e8600480360360408110156106b257600080fd5b81019080803573ffffffffffffffffffffffffffffffffffffffff16906020019092919080359060200190929190505050611861565b6040518082815260200191505060405180910390f35b6108586004803603606081101561071457600080fd5b81019080803590602001909291908035906020019064010000000081111561073b57600080fd5b82018360208201111561074d57600080fd5b8035906020019184600183028401116401000000008311171561076f57600080fd5b91908080601f016020809104026020016040519081016040528093929190818152602001838380828437600081840152601f19601f820116905080830192505050505050509192919290803590602001906401000000008111156107d257600080fd5b8201836020820111156107e457600080fd5b8035906020019184600183028401116401000000008311171561080657600080fd5b91908080601f016020809104026020016040519081016040528093929190818152602001838380828437600081840152601f19601f8201169050808301925050505050505091929192905050506118d4565b005b6108866004803603602081101561087057600080fd5b81019080803590602001909291905050506118d9565b6040518080602001828103825283818151815260200191508051906020019080838360005b838110156108c65780820151818401526020810190506108ab565b50505050905090810190601f1680156108f35780820380516001836020036101000a031916815260200191505b509250505060405180910390f35b61094d6004803603604081101561091757600080fd5b81019080803573ffffffffffffffffffffffffffffffffffffffff16906020019092919080359060200190929190505050611a09565b604051808215151515815260200191505060405180910390f35b6109d36004803603606081101561097d57600080fd5b81019080803573ffffffffffffffffffffffffffffffffffffffff169060200190929190803573ffffffffffffffffffffffffffffffffffffffff16906020019092919080359060200190929190505050611aea565b005b610a01600480360360208110156109eb57600080fd5b8101908080359060200190929190505050611b0a565b6040518082815260200191505060405180910390f35b610a4360048036036020811015610a2d57600080fd5b8101908080359060200190929190505050611b3e565b604051808273ffffffffffffffffffffffffffffffffffffffff1673ffffffffffffffffffffffffffffffffffffffff16815260200191505060405180910390f35b610a8d611b7b565b604051808215151515815260200191505060405180910390f35b610ae960048036036020811015610abd57600080fd5b81019080803573ffffffffffffffffffffffffffffffffffffffff169060200190929190505050611b91565b6040518082815260200191505060405180910390f35b610b07611be1565b604051808273ffffffffffffffffffffffffffffffffffffffff1673ffffffffffffffffffffffffffffffffffffffff16815260200191505060405180910390f35b610b9760048036036040811015610b5f57600080fd5b81019080803573ffffffffffffffffffffffffffffffffffffffff169060200190929190803515159060200190929190505050611c0a565b005b610c9c60048036036080811015610baf57600080fd5b81019080803573ffffffffffffffffffffffffffffffffffffffff169060200190929190803573ffffffffffffffffffffffffffffffffffffffff1690602001909291908035906020019092919080359060200190640100000000811115610c1657600080fd5b820183602082011115610c2857600080fd5b80359060200191846001830284011164010000000083111715610c4a57600080fd5b91908080601f016020809104026020016040519081016040528093929190818152602001838380828437600081840152601f19601f820116905080830192505050505050509192919290505050611dad565b005b610ca6611dd3565b6040518080602001828103825283818151815260200191508051906020019080838360005b83811015610ce6578082015181840152602081019050610ccb565b50505050905090810190601f168015610d135780820380516001836020036101000a031916815260200191505b509250505060405180910390f35b610d8360048036036040811015610d3757600080fd5b81019080803573ffffffffffffffffffffffffffffffffffffffff169060200190929190803573ffffffffffffffffffffffffffffffffffffffff169060200190929190505050611e75565b604051808215151515815260200191505060405180910390f35b610ddf60048036036020811015610db357600080fd5b81019080803573ffffffffffffffffffffffffffffffffffffffff169060200190929190505050611f09565b005b610f406004803603610140811015610df857600080fd5b8101908080604001906002806020026040519081016040528092919082600260200280828437600081840152601f19601f82011690508083019250505050505091929192908060800190600280602002604051908101604052809291906000905b82821015610ead578382604002016002806020026040519081016040528092919082600260200280828437600081840152601f19601f82011690508083019250505050505081526020019060010190610e59565b50505050919291929080604001906002806020026040519081016040528092919082600260200280828437600081840152601f19601f820116905080830192505050505050919291929080604001906002806020026040519081016040528092919082600260200280828437600081840152601f19601f8201169050808301925050505050509192919290505050612114565b005b600060016000837bffffffffffffffffffffffffffffffffffffffffffffffffffffffff19167bffffffffffffffffffffffffffffffffffffffffffffffffffffffff1916815260200190815260200160002060009054906101000a900460ff169050919050565b6000610fb58261256d565b611027576040517f08c379a00000000000000000000000000000000000000000000000000000000081526004018080602001828103825260148152602001807f546f6b656e20646f6573206e6f7420657869737400000000000000000000000081525060200191505060405180910390fd5b6003600083815260200190815260200160002060009054906101000a900473ffffffffffffffffffffffffffffffffffffffff169050919050565b600061106d82611b3e565b90508073ffffffffffffffffffffffffffffffffffffffff168373ffffffffffffffffffffffffffffffffffffffff161415611111576040517f08c379a00000000000000000000000000000000000000000000000000000000081526004018080602001828103825260208152602001807f41646472657373205f746f5f206973206f776e6572206f6620746f6b656e496481525060200191505060405180910390fd5b8073ffffffffffffffffffffffffffffffffffffffff163373ffffffffffffffffffffffffffffffffffffffff16148061115157506111508133611e75565b5b6111a6576040517f08c379a00000000000000000000000000000000000000000000000000000000081526004018080602001828103825260238152602001806139c26023913960400191505060405180910390fd5b826003600084815260200190815260200160002060006101000a81548173ffffffffffffffffffffffffffffffffffffffff021916908373ffffffffffffffffffffffffffffffffffffffff160217905550818373ffffffffffffffffffffffffffffffffffffffff163373ffffffffffffffffffffffffffffffffffffffff167f8c5be1e5ebec7d5bd14f71427d1e84f3dd0314c0f7b2291e5b200ac8c7c3b92560405160405180910390a4505050565b606060108054600181600116156101000203166002900480601f0160208091040260200160405190810160405280929190818152602001828054600181600116156101000203166002900480156112f05780601f106112c5576101008083540402835291602001916112f0565b820191906000526020600020905b8154815290600101906020018083116112d357829003601f168201915b5050505050905090565b6000809054906101000a900473ffffffffffffffffffffffffffffffffffffffff1673ffffffffffffffffffffffffffffffffffffffff163373ffffffffffffffffffffffffffffffffffffffff16146113bc576040517f08c379a000000000000000000000000000000000000000000000000000000000815260040180806020018281038252601e8152602001807f43616c6c6572206973206e6f74206120636f6e7472616374206f776e6572000081525060200191505060405180910390fd5b80600060146101000a81548160ff0219169083151502179055508015611444577f62e78cea01bee320cd4e420270b5ea74000d11b0c9f74754ebdbfc544b05a25833604051808273ffffffffffffffffffffffffffffffffffffffff1673ffffffffffffffffffffffffffffffffffffffff16815260200191505060405180910390a16114a8565b7f5db9ee0a495bf2e6ff9c91a7834c1ba4fdd244a5e8aa4e537bd38aeae4b073aa33604051808273ffffffffffffffffffffffffffffffffffffffff1673ffffffffffffffffffffffffffffffffffffffff16815260200191505060405180910390a15b50565b6060600f8054600181600116156101000203166002900480601f0160208091040260200160405190810160405280929190818152602001828054600181600116156101000203166002900480156115435780601f1061151857610100808354040283529160200191611543565b820191906000526020600020905b81548152906001019060200180831161152657829003601f168201915b5050505050905090565b6000600880549050905090565b6000611568858585856125df565b90506015600082815260200190815260200160002060010160159054906101000a900460ff16611600576040517f08c379a00000000000000000000000000000000000000000000000000000000081526004018080602001828103825260178152602001807f536f6c7574696f6e20646f6573206e6f7420657869737400000000000000000081525060200191505060405180910390fd5b3373ffffffffffffffffffffffffffffffffffffffff166015600083815260200190815260200160002060010160009054906101000a900473ffffffffffffffffffffffffffffffffffffffff1673ffffffffffffffffffffffffffffffffffffffff16146116d7576040517f08c379a000000000000000000000000000000000000000000000000000000000815260040180806020018281038252601c8152602001807f43616c6c6572206973206e6f7420736f6c7574696f6e206f776e65720000000081525060200191505060405180910390fd5b6015600082815260200190815260200160002060010160149054906101000a900460ff161561176e576040517f08c379a000000000000000000000000000000000000000000000000000000000815260040180806020018281038252601a8152602001807f536f6c7574696f6e20697320616c7265616479206d696e74656400000000000081525060200191505060405180910390fd5b6117c46015600083815260200190815260200160002060010160009054906101000a900473ffffffffffffffffffffffffffffffffffffffff166015600084815260200190815260200160002060000154611a09565b5060016015600083815260200190815260200160002060010160146101000a81548160ff0219169083151502179055505050505050565b61180533826126ed565b61180e57600080fd5b611819838383612782565b505050565b61185d828260006040519080825280601f01601f1916602001820160405280156118575781602001600182028038833980820191505090505b506118d4565b5050565b600061186c83611b91565b821061187757600080fd5b600660008473ffffffffffffffffffffffffffffffffffffffff1673ffffffffffffffffffffffffffffffffffffffff16815260200190815260200160002082815481106118c157fe5b9060005260206000200154905092915050565b505050565b60606118e48261256d565b611956576040517f08c379a00000000000000000000000000000000000000000000000000000000081526004018080602001828103825260148152602001807f546f6b656e20646f6573206e6f7420657869737400000000000000000000000081525060200191505060405180910390fd5b601260008381526020019081526020016000208054600181600116156101000203166002900480601f0160208091040260200160405190810160405280929190818152602001828054600181600116156101000203166002900480156119fd5780601f106119d2576101008083540402835291602001916119fd565b820191906000526020600020905b8154815290600101906020018083116119e057829003601f168201915b50505050509050919050565b60008060009054906101000a900473ffffffffffffffffffffffffffffffffffffffff1673ffffffffffffffffffffffffffffffffffffffff163373ffffffffffffffffffffffffffffffffffffffff1614611acd576040517f08c379a000000000000000000000000000000000000000000000000000000000815260040180806020018281038252601e8152602001807f43616c6c6572206973206e6f74206120636f6e7472616374206f776e6572000081525060200191505060405180910390fd5b611ad783836127a6565b611ae0826127c7565b6001905092915050565b611b0583838360405180602001604052806000815250611dad565b505050565b6000611b1461154d565b8210611b1f57600080fd5b60088281548110611b2c57fe5b90600052602060002001549050919050565b60006002600083815260200190815260200160002060009054906101000a900473ffffffffffffffffffffffffffffffffffffffff169050919050565b60008060149054906101000a900460ff16905090565b6000611bda600460008473ffffffffffffffffffffffffffffffffffffffff1673ffffffffffffffffffffffffffffffffffffffff168152602001908152602001600020612918565b9050919050565b60008060009054906101000a900473ffffffffffffffffffffffffffffffffffffffff16905090565b3373ffffffffffffffffffffffffffffffffffffffff168273ffffffffffffffffffffffffffffffffffffffff161415611cac576040517f08c379a00000000000000000000000000000000000000000000000000000000081526004018080602001828103825260128152602001807f43616c6c6572206973206e6f74205f746f5f000000000000000000000000000081525060200191505060405180910390fd5b80600560003373ffffffffffffffffffffffffffffffffffffffff1673ffffffffffffffffffffffffffffffffffffffff16815260200190815260200160002060008473ffffffffffffffffffffffffffffffffffffffff1673ffffffffffffffffffffffffffffffffffffffff16815260200190815260200160002060006101000a81548160ff0219169083151502179055508173ffffffffffffffffffffffffffffffffffffffff163373ffffffffffffffffffffffffffffffffffffffff167f17307eab39ab6107e8899845ad3d59bd9653f200f220920489ca2b5937696c3183604051808215151515815260200191505060405180910390a35050565b611db88484846117fb565b611dc484848484612926565b611dcd57600080fd5b50505050565b606060118054600181600116156101000203166002900480601f016020809104026020016040519081016040528092919081815260200182805460018160011615610100020316600290048015611e6b5780601f10611e4057610100808354040283529160200191611e6b565b820191906000526020600020905b815481529060010190602001808311611e4e57829003601f168201915b5050505050905090565b6000600560008473ffffffffffffffffffffffffffffffffffffffff1673ffffffffffffffffffffffffffffffffffffffff16815260200190815260200160002060008373ffffffffffffffffffffffffffffffffffffffff1673ffffffffffffffffffffffffffffffffffffffff16815260200190815260200160002060009054906101000a900460ff16905092915050565b6000809054906101000a900473ffffffffffffffffffffffffffffffffffffffff1673ffffffffffffffffffffffffffffffffffffffff163373ffffffffffffffffffffffffffffffffffffffff1614611fcb576040517f08c379a000000000000000000000000000000000000000000000000000000000815260040180806020018281038252601e8152602001807f43616c6c6572206973206e6f74206120636f6e7472616374206f776e6572000081525060200191505060405180910390fd5b600073ffffffffffffffffffffffffffffffffffffffff168173ffffffffffffffffffffffffffffffffffffffff16141561206e576040517f08c379a00000000000000000000000000000000000000000000000000000000081526004018080602001828103825260148152602001807f41646472657373206973206e6f742076616c696400000000000000000000000081525060200191505060405180910390fd5b806000806101000a81548173ffffffffffffffffffffffffffffffffffffffff021916908373ffffffffffffffffffffffffffffffffffffffff1602179055507f59f8e335c08d1479ecf855b99b0c772a9cba03a8abdff4d9b52a76f655072df681604051808273ffffffffffffffffffffffffffffffffffffffff1673ffffffffffffffffffffffffffffffffffffffff16815260200191505060405180910390a150565b6000612122858585856125df565b90506015600082815260200190815260200160002060010160159054906101000a900460ff16156121bb576040517f08c379a00000000000000000000000000000000000000000000000000000000081526004018080602001828103825260178152602001807f536f6c7574696f6e20616c72656164792065786973747300000000000000000081525060200191505060405180910390fd5b601360009054906101000a900473ffffffffffffffffffffffffffffffffffffffff1673ffffffffffffffffffffffffffffffffffffffff1663621e9ec0868686866040518563ffffffff1660e01b81526004018085600260200280838360005b8381101561223757808201518184015260208101905061221c565b505050509050018460026000925b8184101561228b5782846020020151600260200280838360005b8381101561227a57808201518184015260208101905061225f565b505050509050019260010192612245565b9250505083600260200280838360005b838110156122b657808201518184015260208101905061229b565b5050505090500182600260200280838360005b838110156122e45780820151818401526020810190506122c9565b50505050905001945050505050602060405180830381600087803b15801561230b57600080fd5b505af115801561231f573d6000803e3d6000fd5b505050506040513d602081101561233557600080fd5b81019080805190602001909291905050506123b8576040517f08c379a000000000000000000000000000000000000000000000000000000000815260040180806020018281038252601b8152602001807f536f6c7574696f6e2063616e6e6f74206265207665726966696564000000000081525060200191505060405180910390fd5b6123c26014612b0f565b60405180608001604052806123d76014612918565b81526020013373ffffffffffffffffffffffffffffffffffffffff16815260200160001515815260200160011515815250601560008381526020019081526020016000206000820151816000015560208201518160010160006101000a81548173ffffffffffffffffffffffffffffffffffffffff021916908373ffffffffffffffffffffffffffffffffffffffff16021790555060408201518160010160146101000a81548160ff02191690831515021790555060608201518160010160156101000a81548160ff0219169083151502179055509050507f078793128cefb19aac38a33f9e5df39f67716907f6d747e8065545699e0b2b8d60156000838152602001908152602001600020600001546015600084815260200190815260200160002060010160009054906101000a900473ffffffffffffffffffffffffffffffffffffffff16604051808381526020018273ffffffffffffffffffffffffffffffffffffffff1673ffffffffffffffffffffffffffffffffffffffff1681526020019250505060405180910390a15050505050565b6000806002600084815260200190815260200160002060009054906101000a900473ffffffffffffffffffffffffffffffffffffffff169050600073ffffffffffffffffffffffffffffffffffffffff168173ffffffffffffffffffffffffffffffffffffffff161415915050919050565b6000848484846040516020018085600260200280838360005b838110156126135780820151818401526020810190506125f8565b505050509050018460026000925b818410156126675782846020020151600260200280838360005b8381101561265657808201518184015260208101905061263b565b505050509050019260010192612621565b9250505083600260200280838360005b83811015612692578082015181840152602081019050612677565b5050505090500182600260200280838360005b838110156126c05780820151818401526020810190506126a5565b50505050905001945050505050604051602081830303815290604052805190602001209050949350505050565b6000806126f983611b3e565b90508073ffffffffffffffffffffffffffffffffffffffff168473ffffffffffffffffffffffffffffffffffffffff16148061276857508373ffffffffffffffffffffffffffffffffffffffff1661275084610faa565b73ffffffffffffffffffffffffffffffffffffffff16145b8061277957506127788185611e75565b5b91505092915050565b61278d838383612b25565b6127978382612d9d565b6127a18282612f3b565b505050565b6127b08282613002565b6127ba8282612f3b565b6127c38161321a565b5050565b6127d08161256d565b612842576040517f08c379a00000000000000000000000000000000000000000000000000000000081526004018080602001828103825260148152602001807f546f6b656e20646f6573206e6f7420657869737400000000000000000000000081525060200191505060405180910390fd5b6128ee60118054600181600116156101000203166002900480601f0160208091040260200160405190810160405280929190818152602001828054600181600116156101000203166002900480156128db5780601f106128b0576101008083540402835291602001916128db565b820191906000526020600020905b8154815290600101906020018083116128be57829003601f168201915b50505050506128e983613266565b613393565b6012600083815260200190815260200160002090805190602001906129149291906138cf565b5050565b600081600001549050919050565b60006129478473ffffffffffffffffffffffffffffffffffffffff166133d7565b6129545760019050612b07565b60008473ffffffffffffffffffffffffffffffffffffffff1663150b7a02338887876040518563ffffffff1660e01b8152600401808573ffffffffffffffffffffffffffffffffffffffff1673ffffffffffffffffffffffffffffffffffffffff1681526020018473ffffffffffffffffffffffffffffffffffffffff1673ffffffffffffffffffffffffffffffffffffffff16815260200183815260200180602001828103825283818151815260200191508051906020019080838360005b83811015612a2f578082015181840152602081019050612a14565b50505050905090810190601f168015612a5c5780820380516001836020036101000a031916815260200191505b5095505050505050602060405180830381600087803b158015612a7e57600080fd5b505af1158015612a92573d6000803e3d6000fd5b505050506040513d6020811015612aa857600080fd5b8101908080519060200190929190505050905063150b7a0260e01b7bffffffffffffffffffffffffffffffffffffffffffffffffffffffff1916817bffffffffffffffffffffffffffffffffffffffffffffffffffffffff1916149150505b949350505050565b6001816000016000828254019250508190555050565b612b2e81611b3e565b73ffffffffffffffffffffffffffffffffffffffff168373ffffffffffffffffffffffffffffffffffffffff1614612bb1576040517f08c379a00000000000000000000000000000000000000000000000000000000081526004018080602001828103825260218152602001806139a16021913960400191505060405180910390fd5b600073ffffffffffffffffffffffffffffffffffffffff168273ffffffffffffffffffffffffffffffffffffffff161415612c54576040517f08c379a00000000000000000000000000000000000000000000000000000000081526004018080602001828103825260178152602001807f41646472657373205f746f5f20697320696e76616c696400000000000000000081525060200191505060405180910390fd5b612c5d81613422565b612ca4600460008573ffffffffffffffffffffffffffffffffffffffff1673ffffffffffffffffffffffffffffffffffffffff1681526020019081526020016000206134e0565b612ceb600460008473ffffffffffffffffffffffffffffffffffffffff1673ffffffffffffffffffffffffffffffffffffffff168152602001908152602001600020612b0f565b816002600083815260200190815260200160002060006101000a81548173ffffffffffffffffffffffffffffffffffffffff021916908373ffffffffffffffffffffffffffffffffffffffff160217905550808273ffffffffffffffffffffffffffffffffffffffff168473ffffffffffffffffffffffffffffffffffffffff167fddf252ad1be2c89b69c2b068fc378daa952ba7f163c4a11628f55a4df523b3ef60405160405180910390a4505050565b6000612df56001600660008673ffffffffffffffffffffffffffffffffffffffff1673ffffffffffffffffffffffffffffffffffffffff1681526020019081526020016000208054905061350390919063ffffffff16565b9050600060076000848152602001908152602001600020549050818114612ee2576000600660008673ffffffffffffffffffffffffffffffffffffffff1673ffffffffffffffffffffffffffffffffffffffff1681526020019081526020016000208381548110612e6257fe5b9060005260206000200154905080600660008773ffffffffffffffffffffffffffffffffffffffff1673ffffffffffffffffffffffffffffffffffffffff1681526020019081526020016000208381548110612eba57fe5b9060005260206000200181905550816007600083815260200190815260200160002081905550505b600660008573ffffffffffffffffffffffffffffffffffffffff1673ffffffffffffffffffffffffffffffffffffffff168152602001908152602001600020805480919060019003612f34919061394f565b5050505050565b600660008373ffffffffffffffffffffffffffffffffffffffff1673ffffffffffffffffffffffffffffffffffffffff168152602001908152602001600020805490506007600083815260200190815260200160002081905550600660008373ffffffffffffffffffffffffffffffffffffffff1673ffffffffffffffffffffffffffffffffffffffff1681526020019081526020016000208190806001815401808255809150509060018203906000526020600020016000909192909190915055505050565b61300b8161256d565b1561307e576040517f08c379a00000000000000000000000000000000000000000000000000000000081526004018080602001828103825260168152602001807f746f6b656e496420616c7265616479206578697374730000000000000000000081525060200191505060405180910390fd5b600073ffffffffffffffffffffffffffffffffffffffff168273ffffffffffffffffffffffffffffffffffffffff161415613121576040517f08c379a00000000000000000000000000000000000000000000000000000000081526004018080602001828103825260178152602001807f41646472657373205f746f5f20697320696e76616c696400000000000000000081525060200191505060405180910390fd5b816002600083815260200190815260200160002060006101000a81548173ffffffffffffffffffffffffffffffffffffffff021916908373ffffffffffffffffffffffffffffffffffffffff1602179055506131ba600460008473ffffffffffffffffffffffffffffffffffffffff1673ffffffffffffffffffffffffffffffffffffffff168152602001908152602001600020612b0f565b808273ffffffffffffffffffffffffffffffffffffffff16600073ffffffffffffffffffffffffffffffffffffffff167fddf252ad1be2c89b69c2b068fc378daa952ba7f163c4a11628f55a4df523b3ef60405160405180910390a45050565b6008805490506009600083815260200190815260200160002081905550600881908060018154018082558091505090600182039060005260206000200160009091929091909150555050565b606060008214156132ae576040518060400160405280600181526020017f3000000000000000000000000000000000000000000000000000000000000000815250905061338e565b600082905060005b600082146132d8578080600101915050600a82816132d057fe5b0491506132b6565b6060816040519080825280601f01601f19166020018201604052801561330d5781602001600182028038833980820191505090505b50905060006001830390505b6000861461338657600a868161332b57fe5b0660300160f81b8282806001900393508151811061334557fe5b60200101907effffffffffffffffffffffffffffffffffffffffffffffffffffffffffffff1916908160001a905350600a868161337e57fe5b049550613319565b819450505050505b919050565b60606133cf838360405180602001604052806000815250604051806020016040528060008152506040518060200160405280600081525061354d565b905092915050565b60008060007fc5d2460186f7233c927e7db2dcc703c0e500b653ca82273b7bfad8045d85a47060001b9050833f915080821415801561341957506000801b8214155b92505050919050565b600073ffffffffffffffffffffffffffffffffffffffff166003600083815260200190815260200160002060009054906101000a900473ffffffffffffffffffffffffffffffffffffffff1673ffffffffffffffffffffffffffffffffffffffff16146134dd5760006003600083815260200190815260200160002060006101000a81548173ffffffffffffffffffffffffffffffffffffffff021916908373ffffffffffffffffffffffffffffffffffffffff1602179055505b50565b6134f86001826000015461350390919063ffffffff16565b816000018190555050565b600061354583836040518060400160405280601e81526020017f536166654d6174683a207375627472616374696f6e206f766572666c6f77000081525061380f565b905092915050565b6060808690506060869050606086905060608690506060869050606081518351855187518951010101016040519080825280601f01601f1916602001820160405280156135a95781602001600182028038833980820191505090505b509050606081905060008090506000809050600090505b885181101561362e578881815181106135d557fe5b602001015160f81c60f81b8383806001019450815181106135f257fe5b60200101907effffffffffffffffffffffffffffffffffffffffffffffffffffffffffffff1916908160001a90535080806001019150506135c0565b600090505b87518110156136a15787818151811061364857fe5b602001015160f81c60f81b83838060010194508151811061366557fe5b60200101907effffffffffffffffffffffffffffffffffffffffffffffffffffffffffffff1916908160001a9053508080600101915050613633565b600090505b8651811015613714578681815181106136bb57fe5b602001015160f81c60f81b8383806001019450815181106136d857fe5b60200101907effffffffffffffffffffffffffffffffffffffffffffffffffffffffffffff1916908160001a90535080806001019150506136a6565b600090505b85518110156137875785818151811061372e57fe5b602001015160f81c60f81b83838060010194508151811061374b57fe5b60200101907effffffffffffffffffffffffffffffffffffffffffffffffffffffffffffff1916908160001a9053508080600101915050613719565b600090505b84518110156137fa578481815181106137a157fe5b602001015160f81c60f81b8383806001019450815181106137be57fe5b60200101907effffffffffffffffffffffffffffffffffffffffffffffffffffffffffffff1916908160001a905350808060010191505061378c565b82995050505050505050505095945050505050565b60008383111582906138bc576040517f08c379a00000000000000000000000000000000000000000000000000000000081526004018080602001828103825283818151815260200191508051906020019080838360005b83811015613881578082015181840152602081019050613866565b50505050905090810190601f1680156138ae5780820380516001836020036101000a031916815260200191505b509250505060405180910390fd5b5060008385039050809150509392505050565b828054600181600116156101000203166002900490600052602060002090601f016020900481019282601f1061391057805160ff191683800117855561393e565b8280016001018555821561393e579182015b8281111561393d578251825591602001919060010190613922565b5b50905061394b919061397b565b5090565b81548183558181111561397657818360005260206000209182019101613975919061397b565b5b505050565b61399d91905b80821115613999576000816000905550600101613981565b5090565b9056fe41646472657373205f66726f6d5f206973206e6f7420746f6b656e206f776e657243616c6c6572206973206e6f7420617574686f72697a656420746f20617070726f7665a265627a7a72315820ce4da2d8761e1e5d651fc24f4f508e7395581c0eb4a946779ae78d69e706997d64736f6c6343000510003268747470733a2f2f73332d75732d776573742d322e616d617a6f6e6177732e636f6d2f756461636974792d626c6f636b636861696e2f63617073746f6e652f",
  "source": "pragma solidity >=0.4.21 <0.6.0;\n\nimport \"./ERC721Mintable.sol\";\nimport 'openzeppelin-solidity/contracts/drafts/Counters.sol';\n\n// DONE define a contract call to the zokrates generated solidity contract <Verifier> or <renamedVerifier>\n// Verifier Interface is defined below\n\n// DONE define another contract named SolnSquareVerifier that inherits from your ERC721Mintable class\ncontract SolnSquareVerifier is CustomERC721Token {\n    Verifier private verifierContract;\n\n    constructor(address verifierAddress)\n    public\n    {\n        verifierContract = Verifier(verifierAddress);\n    }\n\n    // DONE define a solutions struct that can hold an index & an address\n    struct Solution {\n        uint256 tokenId;\n        address tokenOwner;\n        bool isMinted;\n        bool exists;\n    }\n\n    // DONE define an array of the above struct\n    Counters.Counter private numSolutions;\n\n    // DONE define a mapping to store unique solutions submitted\n    mapping(bytes32 => Solution) private solutions;\n\n\n    // DONE Create an event to emit when a solution is added\n    event SolutionAdded(uint256 tokenId, address tokenOwner);\n\n\n    // DONE Create a function to add the solutions to the array and emit the event\n    function addSolution(\n        uint[2] memory a, uint[2][2] memory b, uint[2] memory c, uint[2] memory input\n    )\n    public\n    {\n        bytes32 solutionKey = getSolutionKey(a, b, c, input);\n\n        require(!solutions[solutionKey].exists, \"Solution already exists\");\n        require(verifierContract.verifyTx(a,b,c,input), \"Solution cannot be verified\");\n\n        numSolutions.increment();\n        solutions[solutionKey] = Solution({\n            tokenId : numSolutions.current(),\n            tokenOwner : msg.sender,\n            isMinted : false,\n            exists : true\n            });\n        emit SolutionAdded(solutions[solutionKey].tokenId, solutions[solutionKey].tokenOwner);\n    }\n\n    function getSolutionKey\n    (\n        uint[2] memory a,\n        uint[2][2] memory b,\n        uint[2] memory c,\n        uint[2] memory input\n    )\n    internal pure\n    returns (bytes32)\n    {\n        return keccak256(abi.encodePacked(a, b, c, input));\n    }\n\n    // DONE Create a function to mint new NFT only after the solution has been verified\n    //  - make sure the solution is unique (has not been used before)\n    //  - make sure you handle metadata as well as tokenSupply\n    function mintNewTokens(\n        uint[2] memory a,\n        uint[2][2] memory b,\n        uint[2] memory c,\n        uint[2] memory input\n    )\n    public\n    {\n        bytes32 solutionKey = getSolutionKey(a, b, c, input);\n        require(solutions[solutionKey].exists, \"Solution does not exist\");\n        require(solutions[solutionKey].tokenOwner == msg.sender, \"Caller is not solution owner\");\n        require(!solutions[solutionKey].isMinted, \"Solution is already minted\");\n\n        super.mint(solutions[solutionKey].tokenOwner, solutions[solutionKey].tokenId);\n        solutions[solutionKey].isMinted = true;\n    }\n}\n\n\ncontract Verifier {\n    function verifyTx\n    (\n        uint[2] memory a,\n        uint[2][2] memory b,\n        uint[2] memory c,\n        uint[2] memory input\n    )\n    public\n    returns (bool);\n}\n\n\n\n\n\n\n\n\n\n\n\n\n\n\n\n\n\n\n\n\n\n\n\n\n\n\n",
  "sourcePath": "/Users/kinshuk/lyf/scm/github/k2/bdnd-real-estate-marketplace/eth-contracts/contracts/SolnSquareVerifier.sol",
  "compiler": {
    "name": "solc",
    "version": "0.5.16+commit.9c3226ce.Emscripten.clang"
  },
  "schemaVersion": "3.0.23",
  "updatedAt": "2020-04-28T03:00:24.402Z",
  "networkType": "ethereum",
  "devdoc": {
    "methods": {
      "isApprovedForAll(address,address)": {
        "details": "Tells whether an operator is approved by a given owner",
        "params": {
          "operator": "operator address which you want to query the approval of",
          "owner": "owner address which you want to query the approval of"
        },
        "return": "bool whether the given operator is approved by the given owner"
      },
      "setApprovalForAll(address,bool)": {
        "details": "Sets or unsets the approval of a given operator An operator is allowed to transfer all tokens of the sender on their behalf",
        "params": {
          "approved": "representing the status of the approval to be set",
          "to": "operator address to set the approval"
        }
      },
      "supportsInterface(bytes4)": {
        "details": "implement supportsInterface(bytes4) using a lookup table"
      },
      "tokenByIndex(uint256)": {
        "details": "Gets the token ID at a given index of all the tokens in this contract Reverts if the index is greater or equal to the total number of tokens",
        "params": {
          "index": "uint256 representing the index to be accessed of the tokens list"
        },
        "return": "uint256 token ID at the given index of the tokens list"
      },
      "tokenOfOwnerByIndex(address,uint256)": {
        "details": "Gets the token ID at a given index of the tokens list of the requested owner",
        "params": {
          "index": "uint256 representing the index to be accessed of the requested tokens list",
          "owner": "address owning the tokens list to be accessed"
        },
        "return": "uint256 token ID at the given index of the tokens list owned by the requested address"
      },
      "totalSupply()": {
        "details": "Gets the total amount of tokens stored by the contract",
        "return": "uint256 representing the total amount of tokens"
      }
    }
  },
  "userdoc": {
    "methods": {}
  }
}